{
  "contractName": "CrowdfyFabric",
  "abi": [
    {
      "inputs": [],
      "stateMutability": "nonpayable",
      "type": "constructor"
    },
    {
      "anonymous": false,
      "inputs": [
        {
          "indexed": false,
          "internalType": "string",
          "name": "campaignName",
          "type": "string"
        },
        {
          "indexed": true,
          "internalType": "address",
          "name": "creator",
          "type": "address"
        },
        {
          "indexed": false,
          "internalType": "address",
          "name": "beneficiary",
          "type": "address"
        },
        {
          "indexed": false,
          "internalType": "uint256",
          "name": "fundingGoal",
          "type": "uint256"
        },
        {
          "indexed": false,
          "internalType": "uint256",
          "name": "createdTime",
          "type": "uint256"
        },
        {
          "indexed": false,
          "internalType": "uint256",
          "name": "deadline",
          "type": "uint256"
        },
        {
          "indexed": true,
          "internalType": "address",
          "name": "campaignAddress",
          "type": "address"
        }
      ],
      "name": "CampaignCreated",
      "type": "event"
    },
    {
      "inputs": [
        {
          "internalType": "uint256",
          "name": "",
          "type": "uint256"
        }
      ],
      "name": "campaigns",
      "outputs": [
        {
          "internalType": "string",
          "name": "campaignName",
          "type": "string"
        },
        {
          "internalType": "uint256",
          "name": "fundingGoal",
          "type": "uint256"
        },
        {
          "internalType": "uint256",
          "name": "fundingCap",
          "type": "uint256"
        },
        {
          "internalType": "uint256",
          "name": "deadline",
          "type": "uint256"
        },
        {
          "internalType": "address",
          "name": "beneficiary",
          "type": "address"
        },
        {
          "internalType": "address",
          "name": "owner",
          "type": "address"
        },
        {
          "internalType": "uint256",
          "name": "created",
          "type": "uint256"
        },
        {
          "internalType": "address",
          "name": "campaignAddress",
          "type": "address"
        }
      ],
      "stateMutability": "view",
      "type": "function"
    },
    {
      "inputs": [
        {
          "internalType": "uint256",
          "name": "",
          "type": "uint256"
        }
      ],
      "name": "campaignsById",
      "outputs": [
        {
          "internalType": "address",
          "name": "",
          "type": "address"
        }
      ],
      "stateMutability": "view",
      "type": "function"
    },
    {
      "inputs": [
        {
          "internalType": "string",
          "name": "_campaignName",
          "type": "string"
        },
        {
          "internalType": "uint256",
          "name": "_fundingGoal",
          "type": "uint256"
        },
        {
          "internalType": "uint256",
          "name": "_deadline",
          "type": "uint256"
        },
        {
          "internalType": "uint256",
          "name": "_fundingCap",
          "type": "uint256"
        },
        {
          "internalType": "address",
          "name": "_beneficiaryAddress",
          "type": "address"
        }
      ],
      "name": "createCampaign",
      "outputs": [
        {
          "internalType": "uint256",
          "name": "",
          "type": "uint256"
        }
      ],
      "stateMutability": "nonpayable",
      "type": "function"
    },
    {
      "inputs": [],
      "name": "getCampaignsLength",
      "outputs": [
        {
          "internalType": "uint256",
          "name": "",
          "type": "uint256"
        }
      ],
      "stateMutability": "view",
      "type": "function"
    }
  ],
  "bytecode": "0x60a060405234801561001057600080fd5b5033600260006101000a81548173ffffffffffffffffffffffffffffffffffffffff021916908373ffffffffffffffffffffffffffffffffffffffff16021790555060405161005e906100b6565b604051809103906000f08015801561007a573d6000803e3d6000fd5b5073ffffffffffffffffffffffffffffffffffffffff1660808173ffffffffffffffffffffffffffffffffffffffff1660601b815250506100c3565b612a2b80610e0f83390190565b60805160601c610d2e6100e160003960006102530152610d2e6000f3fe608060405234801561001057600080fd5b506004361061004c5760003560e01c8063141961bc146100515780631a654ac614610088578063747a512b146100b8578063fb5474ae146100e8575b600080fd5b61006b600480360381019061006691906108bf565b610106565b60405161007f989796959493929190610a9b565b60405180910390f35b6100a2600480360381019061009d919061082d565b610246565b6040516100af9190610b40565b60405180910390f35b6100d260048036038101906100cd91906108bf565b610602565b6040516100df91906109ac565b60405180910390f35b6100f0610635565b6040516100fd9190610b40565b60405180910390f35b6000818154811061011657600080fd5b906000526020600020906008020160009150905080600001805461013990610c29565b80601f016020809104026020016040519081016040528092919081815260200182805461016590610c29565b80156101b25780601f10610187576101008083540402835291602001916101b2565b820191906000526020600020905b81548152906001019060200180831161019557829003601f168201915b5050505050908060010154908060020154908060030154908060040160009054906101000a900473ffffffffffffffffffffffffffffffffffffffff16908060050160009054906101000a900473ffffffffffffffffffffffffffffffffffffffff16908060060154908060070160009054906101000a900473ffffffffffffffffffffffffffffffffffffffff16905088565b60008033905060006102777f0000000000000000000000000000000000000000000000000000000000000000610641565b90508073ffffffffffffffffffffffffffffffffffffffff16633d789e678a8a8a8a8a8a89600260009054906101000a900473ffffffffffffffffffffffffffffffffffffffff166040518963ffffffff1660e01b81526004016102e2989796959493929190610a23565b600060405180830381600087803b1580156102fc57600080fd5b505af1158015610310573d6000803e3d6000fd5b5050505060006040518061010001604052808b8b8080601f016020809104026020016040519081016040528093929190818152602001838380828437600081840152601f19601f8201169050808301925050505050505081526020018981526020018781526020018881526020018673ffffffffffffffffffffffffffffffffffffffff1681526020018473ffffffffffffffffffffffffffffffffffffffff1681526020014281526020018373ffffffffffffffffffffffffffffffffffffffff168152509080600181540180825580915050600190039060005260206000209060080201600090919091909150600082015181600001908051906020019061041b929190610716565b5060208201518160010155604082015181600201556060820151816003015560808201518160040160006101000a81548173ffffffffffffffffffffffffffffffffffffffff021916908373ffffffffffffffffffffffffffffffffffffffff16021790555060a08201518160050160006101000a81548173ffffffffffffffffffffffffffffffffffffffff021916908373ffffffffffffffffffffffffffffffffffffffff16021790555060c0820151816006015560e08201518160070160006101000a81548173ffffffffffffffffffffffffffffffffffffffff021916908373ffffffffffffffffffffffffffffffffffffffff16021790555050506000600160008054905061052f9190610b77565b9050816001600083815260200190815260200160002060006101000a81548173ffffffffffffffffffffffffffffffffffffffff021916908373ffffffffffffffffffffffffffffffffffffffff1602179055508173ffffffffffffffffffffffffffffffffffffffff168373ffffffffffffffffffffffffffffffffffffffff167fae7a6d9ea2f97678448779a611e1804dd0b3a144045e355aacc9695f7c837d198c8c898b428e6040516105ea969594939291906109c7565b60405180910390a38093505050509695505050505050565b60016020528060005260406000206000915054906101000a900473ffffffffffffffffffffffffffffffffffffffff1681565b60008080549050905090565b60006040517f3d602d80600a3d3981f3363d3d373d3d3d363d7300000000000000000000000081528260601b60148201527f5af43d82803e903d91602b57fd5bf3000000000000000000000000000000000060288201526037816000f0915050600073ffffffffffffffffffffffffffffffffffffffff168173ffffffffffffffffffffffffffffffffffffffff161415610711576040517f08c379a000000000000000000000000000000000000000000000000000000000815260040161070890610b20565b60405180910390fd5b919050565b82805461072290610c29565b90600052602060002090601f016020900481019282610744576000855561078b565b82601f1061075d57805160ff191683800117855561078b565b8280016001018555821561078b579182015b8281111561078a57825182559160200191906001019061076f565b5b509050610798919061079c565b5090565b5b808211156107b557600081600090555060010161079d565b5090565b6000813590506107c881610cca565b92915050565b60008083601f8401126107e057600080fd5b8235905067ffffffffffffffff8111156107f957600080fd5b60208301915083600182028301111561081157600080fd5b9250929050565b60008135905061082781610ce1565b92915050565b60008060008060008060a0878903121561084657600080fd5b600087013567ffffffffffffffff81111561086057600080fd5b61086c89828a016107ce565b9650965050602061087f89828a01610818565b945050604061089089828a01610818565b93505060606108a189828a01610818565b92505060806108b289828a016107b9565b9150509295509295509295565b6000602082840312156108d157600080fd5b60006108df84828501610818565b91505092915050565b6108f181610bab565b82525050565b60006109038385610b66565b9350610910838584610be7565b61091983610cb9565b840190509392505050565b600061092f82610b5b565b6109398185610b66565b9350610949818560208601610bf6565b61095281610cb9565b840191505092915050565b600061096a601683610b66565b91507f455243313136373a20637265617465206661696c6564000000000000000000006000830152602082019050919050565b6109a681610bdd565b82525050565b60006020820190506109c160008301846108e8565b92915050565b600060a08201905081810360008301526109e281888a6108f7565b90506109f160208301876108e8565b6109fe604083018661099d565b610a0b606083018561099d565b610a18608083018461099d565b979650505050505050565b600060e0820190508181036000830152610a3e818a8c6108f7565b9050610a4d602083018961099d565b610a5a604083018861099d565b610a67606083018761099d565b610a7460808301866108e8565b610a8160a08301856108e8565b610a8e60c08301846108e8565b9998505050505050505050565b6000610100820190508181036000830152610ab6818b610924565b9050610ac5602083018a61099d565b610ad2604083018961099d565b610adf606083018861099d565b610aec60808301876108e8565b610af960a08301866108e8565b610b0660c083018561099d565b610b1360e08301846108e8565b9998505050505050505050565b60006020820190508181036000830152610b398161095d565b9050919050565b6000602082019050610b55600083018461099d565b92915050565b600081519050919050565b600082825260208201905092915050565b6000610b8282610bdd565b9150610b8d83610bdd565b925082821015610ba057610b9f610c5b565b5b828203905092915050565b6000610bb682610bbd565b9050919050565b600073ffffffffffffffffffffffffffffffffffffffff82169050919050565b6000819050919050565b82818337600083830152505050565b60005b83811015610c14578082015181840152602081019050610bf9565b83811115610c23576000848401525b50505050565b60006002820490506001821680610c4157607f821691505b60208210811415610c5557610c54610c8a565b5b50919050565b7f4e487b7100000000000000000000000000000000000000000000000000000000600052601160045260246000fd5b7f4e487b7100000000000000000000000000000000000000000000000000000000600052602260045260246000fd5b6000601f19601f8301169050919050565b610cd381610bab565b8114610cde57600080fd5b50565b610cea81610bdd565b8114610cf557600080fd5b5056fea2646970667358221220004dde1a643bfa2d8807b0a86732615e72bd634583afa43419391c9991588f9964736f6c63430008000033608060405260008060006101000a81548160ff021916908315150217905550600060045534801561002f57600080fd5b506129ec8061003f6000396000f3fe6080604052600436106100915760003560e01c80639e9fa535116100595780639e9fa53514610174578063c383759e146101a7578063c80ec522146101b1578063d7bb99ba146101dc578063f9850008146101e657610091565b80631cee070014610096578063269fa128146100d65780633ccfd60b146101015780633d789e671461010b57806345c53b5114610134575b600080fd5b3480156100a257600080fd5b506100bd60048036038101906100b89190611f6f565b6101fd565b6040516100cd949392919061239e565b60405180910390f35b3480156100e257600080fd5b506100eb61025d565b6040516100f89190612592565b60405180910390f35b610109610263565b005b34801561011757600080fd5b50610132600480360381019061012d9190611eb5565b610777565b005b34801561014057600080fd5b5061015b60048036038101906101569190611e8c565b610a93565b60405161016b949392919061239e565b60405180910390f35b34801561018057600080fd5b50610189610ae3565b60405161019e999897969594939291906123e3565b60405180910390f35b6101af610bf4565b005b3480156101bd57600080fd5b506101c6611127565b6040516101d39190612592565b60405180910390f35b6101e461112d565b005b3480156101f257600080fd5b506101fb611a81565b005b6001818154811061020d57600080fd5b90600052602060002090600402016000915090508060000160009054906101000a900473ffffffffffffffffffffffffffffffffffffffff16908060010154908060020154908060030154905084565b60035481565b6040518060400160405280600260048111156102a8577f4e487b7100000000000000000000000000000000000000000000000000000000600052602160045260246000fd5b60048111156102e0577f4e487b7100000000000000000000000000000000000000000000000000000000600052602160045260246000fd5b815260200160048081111561031e577f4e487b7100000000000000000000000000000000000000000000000000000000600052602160045260246000fd5b6004811115610356577f4e487b7100000000000000000000000000000000000000000000000000000000600052602160045260246000fd5b81525080600060028110610393577f4e487b7100000000000000000000000000000000000000000000000000000000600052603260045260246000fd5b602002015160048111156103d0577f4e487b7100000000000000000000000000000000000000000000000000000000600052602160045260246000fd5b60ff166103db611a97565b60ff16148061046c57508060016002811061041f577f4e487b7100000000000000000000000000000000000000000000000000000000600052603260045260246000fd5b6020020151600481111561045c577f4e487b7100000000000000000000000000000000000000000000000000000000600052602160045260246000fd5b60ff16610467611a97565b60ff16145b6104ab576040517f08c379a00000000000000000000000000000000000000000000000000000000081526004016104a290612557565b60405180910390fd5b3373ffffffffffffffffffffffffffffffffffffffff16600560040160009054906101000a900473ffffffffffffffffffffffffffffffffffffffff1673ffffffffffffffffffffffffffffffffffffffff161461053e576040517f08c379a000000000000000000000000000000000000000000000000000000000815260040161053590612537565b60405180910390fd5b600060045460035410156105635760035460045461055c91906126ec565b9050610576565b60045460035461057391906126ec565b90505b6003546004600082825461058a919061260b565b9250508190555060006003819055506000600560040160009054906101000a900473ffffffffffffffffffffffffffffffffffffffff1673ffffffffffffffffffffffffffffffffffffffff16826040516105e490612360565b60006040518083038185875af1925050503d8060008114610621576040519150601f19603f3d011682016040523d82523d6000602084013e610626565b606091505b505090508061066a576040517f08c379a0000000000000000000000000000000000000000000000000000000008152600401610661906124d7565b60405180910390fd5b7f69c28ed920602b9cdf6ed91326f80f2938e8a2abea60f62437bd2497c163bebb600560040160009054906101000a900473ffffffffffffffffffffffffffffffffffffffff16836040516106c0929190612375565b60405180910390a160056002015460045410610772576003600560070160006101000a81548160ff02191690836004811115610725577f4e487b7100000000000000000000000000000000000000000000000000000000600052602160045260246000fd5b02179055507fd19a4f1dc67e9517b0aae3c5a223a30b0e7acadef01a15441737504115d0768f610753611a97565b42600560080154604051610769939291906125ad565b60405180910390a15b505050565b4285116107b9576040517f08c379a00000000000000000000000000000000000000000000000000000000081526004016107b090612497565b60405180910390fd5b60008054906101000a900460ff16156107fb577f4e487b7100000000000000000000000000000000000000000000000000000000600052600160045260246000fd5b60405180610120016040528089898080601f016020809104026020016040519081016040528093929190818152602001838380828437600081840152601f19601f82011690508083019250505050505050815260200161085a88611cf8565b815260200161086886611cf8565b81526020018681526020018473ffffffffffffffffffffffffffffffffffffffff1681526020018373ffffffffffffffffffffffffffffffffffffffff168152602001428152602001600060048111156108eb577f4e487b7100000000000000000000000000000000000000000000000000000000600052602160045260246000fd5b8152602001600081525060056000820151816000019080519060200190610913929190611d37565b5060208201518160010155604082015181600201556060820151816003015560808201518160040160006101000a81548173ffffffffffffffffffffffffffffffffffffffff021916908373ffffffffffffffffffffffffffffffffffffffff16021790555060a08201518160050160006101000a81548173ffffffffffffffffffffffffffffffffffffffff021916908373ffffffffffffffffffffffffffffffffffffffff16021790555060c0820151816006015560e08201518160070160006101000a81548160ff02191690836004811115610a1b577f4e487b7100000000000000000000000000000000000000000000000000000000600052602160045260246000fd5b0217905550610100820151816008015590505080600060016101000a81548173ffffffffffffffffffffffffffffffffffffffff021916908373ffffffffffffffffffffffffffffffffffffffff16021790555060016000806101000a81548160ff0219169083151502179055505050505050505050565b60026020528060005260406000206000915090508060000160009054906101000a900473ffffffffffffffffffffffffffffffffffffffff16908060010154908060020154908060030154905084565b6005806000018054610af4906127eb565b80601f0160208091040260200160405190810160405280929190818152602001828054610b20906127eb565b8015610b6d5780601f10610b4257610100808354040283529160200191610b6d565b820191906000526020600020905b815481529060010190602001808311610b5057829003601f168201915b5050505050908060010154908060020154908060030154908060040160009054906101000a900473ffffffffffffffffffffffffffffffffffffffff16908060050160009054906101000a900473ffffffffffffffffffffffffffffffffffffffff16908060060154908060070160009054906101000a900460ff16908060080154905089565b604051806040016040528060016004811115610c39577f4e487b7100000000000000000000000000000000000000000000000000000000600052602160045260246000fd5b6004811115610c71577f4e487b7100000000000000000000000000000000000000000000000000000000600052602160045260246000fd5b815260200160016004811115610cb0577f4e487b7100000000000000000000000000000000000000000000000000000000600052602160045260246000fd5b6004811115610ce8577f4e487b7100000000000000000000000000000000000000000000000000000000600052602160045260246000fd5b81525080600060028110610d25577f4e487b7100000000000000000000000000000000000000000000000000000000600052603260045260246000fd5b60200201516004811115610d62577f4e487b7100000000000000000000000000000000000000000000000000000000600052602160045260246000fd5b60ff16610d6d611a97565b60ff161480610dfe575080600160028110610db1577f4e487b7100000000000000000000000000000000000000000000000000000000600052603260045260246000fd5b60200201516004811115610dee577f4e487b7100000000000000000000000000000000000000000000000000000000600052602160045260246000fd5b60ff16610df9611a97565b60ff16145b610e3d576040517f08c379a0000000000000000000000000000000000000000000000000000000008152600401610e3490612557565b60405180910390fd5b600f60003373ffffffffffffffffffffffffffffffffffffffff1673ffffffffffffffffffffffffffffffffffffffff16815260200190815260200160002060009054906101000a900460ff16610ec9576040517f08c379a0000000000000000000000000000000000000000000000000000000008152600401610ec0906124f7565b60405180910390fd5b600e60003373ffffffffffffffffffffffffffffffffffffffff1673ffffffffffffffffffffffffffffffffffffffff16815260200190815260200160002060009054906101000a900460ff1615610f56576040517f08c379a0000000000000000000000000000000000000000000000000000000008152600401610f4d90612477565b60405180910390fd5b6000600260003373ffffffffffffffffffffffffffffffffffffffff1673ffffffffffffffffffffffffffffffffffffffff1681526020019081526020016000206001015490506000600260003373ffffffffffffffffffffffffffffffffffffffff1673ffffffffffffffffffffffffffffffffffffffff1681526020019081526020016000206001018190555060003373ffffffffffffffffffffffffffffffffffffffff168260405161100b90612360565b60006040518083038185875af1925050503d8060008114611048576040519150601f19603f3d011682016040523d82523d6000602084013e61104d565b606091505b5050905080611091576040517f08c379a0000000000000000000000000000000000000000000000000000000008152600401611088906124d7565b60405180910390fd5b6001600e60003373ffffffffffffffffffffffffffffffffffffffff1673ffffffffffffffffffffffffffffffffffffffff16815260200190815260200160002060006101000a81548160ff0219169083151502179055507f0d8155b71a49cdcbf2ff949cd1ffc6b12f5ef6680b329f75c3b1e9c00b1deadc338360405161111a929190612375565b60405180910390a1505050565b60045481565b604051806040016040528060006004811115611172577f4e487b7100000000000000000000000000000000000000000000000000000000600052602160045260246000fd5b60048111156111aa577f4e487b7100000000000000000000000000000000000000000000000000000000600052602160045260246000fd5b81526020016004808111156111e8577f4e487b7100000000000000000000000000000000000000000000000000000000600052602160045260246000fd5b6004811115611220577f4e487b7100000000000000000000000000000000000000000000000000000000600052602160045260246000fd5b8152508060006002811061125d577f4e487b7100000000000000000000000000000000000000000000000000000000600052603260045260246000fd5b6020020151600481111561129a577f4e487b7100000000000000000000000000000000000000000000000000000000600052602160045260246000fd5b60ff166112a5611a97565b60ff1614806113365750806001600281106112e9577f4e487b7100000000000000000000000000000000000000000000000000000000600052603260045260246000fd5b60200201516004811115611326577f4e487b7100000000000000000000000000000000000000000000000000000000600052602160045260246000fd5b60ff16611331611a97565b60ff16145b611375576040517f08c379a000000000000000000000000000000000000000000000000000000000815260040161136c90612557565b60405180910390fd5b600034116113b8576040517f08c379a00000000000000000000000000000000000000000000000000000000081526004016113af906124b7565b60405180910390fd5b60006113c334611d15565b9050600f60003373ffffffffffffffffffffffffffffffffffffffff1673ffffffffffffffffffffffffffffffffffffffff16815260200190815260200160002060009054906101000a900460ff1615611553576000600260003373ffffffffffffffffffffffffffffffffffffffff1673ffffffffffffffffffffffffffffffffffffffff1681526020019081526020016000209050813461146691906126ec565b816001016000828254611479919061260b565b9250508190555080600301600081548092919061149590612851565b919050555060018190806001815401808255809150506001900390600052602060002090600402016000909190919091506000820160009054906101000a900473ffffffffffffffffffffffffffffffffffffffff168160000160006101000a81548173ffffffffffffffffffffffffffffffffffffffff021916908373ffffffffffffffffffffffffffffffffffffffff160217905550600182015481600101556002820154816002015560038201548160030155505050611735565b61155b611dbd565b60405180608001604052803373ffffffffffffffffffffffffffffffffffffffff168152602001833461158e91906126ec565b81526020014281526020016001815250905080600260003373ffffffffffffffffffffffffffffffffffffffff1673ffffffffffffffffffffffffffffffffffffffff16815260200190815260200160002060008201518160000160006101000a81548173ffffffffffffffffffffffffffffffffffffffff021916908373ffffffffffffffffffffffffffffffffffffffff160217905550602082015181600101556040820151816002015560608201518160030155905050600181908060018154018082558091505060019003906000526020600020906004020160009091909190915060008201518160000160006101000a81548173ffffffffffffffffffffffffffffffffffffffff021916908373ffffffffffffffffffffffffffffffffffffffff16021790555060208201518160010155604082015181600201556060820151816003015550506001600f60003373ffffffffffffffffffffffffffffffffffffffff1673ffffffffffffffffffffffffffffffffffffffff16815260200190815260200160002060006101000a81548160ff021916908315150217905550505b803461174191906126ec565b60056008016000828254611755919061260b565b92505081905550803461176891906126ec565b60036000828254611779919061260b565b9250508190555060008060019054906101000a900473ffffffffffffffffffffffffffffffffffffffff1673ffffffffffffffffffffffffffffffffffffffff16826040516117c790612360565b60006040518083038185875af1925050503d8060008114611804576040519150601f19603f3d011682016040523d82523d6000602084013e611809565b606091505b505090508061184d576040517f08c379a0000000000000000000000000000000000000000000000000000000008152600401611844906124d7565b60405180910390fd5b7fa16998de83819f5ca2c042721f072a56d937c091116a4f7ae5d13bd9cd134df18260405161187c9190612592565b60405180910390a17fa58938784a8b5e957cd3d5985f480e22369c83454366cf45c27a984255189cf0600260003373ffffffffffffffffffffffffffffffffffffffff1673ffffffffffffffffffffffffffffffffffffffff1681526020019081526020016000206040516118f19190612577565b60405180910390a16005600101546005600801541015801561191c5750600560020154600560080154105b801561193b5750426224ea00600560030154611938919061260b565b10155b156119ce576004600560070160006101000a81548160ff0219169083600481111561198f577f4e487b7100000000000000000000000000000000000000000000000000000000600052602160045260246000fd5b02179055507fad82a6bfb97f4201aa3ae3006c4fb2ac920cd47a8c5765a5fd9dc34c5b4fb07e6040516119c190612517565b60405180910390a1611a7c565b600560020154600560080154101580156119ee5750600560020154600454105b80611a215750426224ea00600560030154611a09919061260b565b108015611a20575060056001015460056008015410155b5b15611a7b576002600560070160006101000a81548160ff02191690836004811115611a75577f4e487b7100000000000000000000000000000000000000000000000000000000600052602160045260246000fd5b02179055505b5b505050565b6003600560030181905550611a94611a97565b50565b600042600560030154118015611ab65750600560010154600560080154105b8015611ac457506000600454145b15611b0a5760006004811115611b03577f4e487b7100000000000000000000000000000000000000000000000000000000600052602160045260246000fd5b9050611cf5565b60056001015460056008015410158015611b2d5750600560020154600560080154105b8015611b4c5750426224ea00600560030154611b49919061260b565b10155b15611b9157600480811115611b8a577f4e487b7100000000000000000000000000000000000000000000000000000000600052602160045260246000fd5b9050611cf5565b60056002015460056008015410158015611bb15750600560020154600454105b80611be45750426224ea00600560030154611bcc919061260b565b108015611be3575060056001015460056008015410155b5b15611c2a5760026004811115611c23577f4e487b7100000000000000000000000000000000000000000000000000000000600052602160045260246000fd5b9050611cf5565b60056002015460056008015410158015611c4b575060056002015460045410155b15611c915760036004811115611c8a577f4e487b7100000000000000000000000000000000000000000000000000000000600052602160045260246000fd5b9050611cf5565b42600560030154108015611cae5750600560010154600560080154105b15611cf45760016004811115611ced577f4e487b7100000000000000000000000000000000000000000000000000000000600052602160045260246000fd5b9050611cf5565b5b90565b6000670de0b6b3a764000082611d0e9190612692565b9050919050565b60006064600183611d269190612692565b611d309190612661565b9050919050565b828054611d43906127eb565b90600052602060002090601f016020900481019282611d655760008555611dac565b82601f10611d7e57805160ff1916838001178555611dac565b82800160010185558215611dac579182015b82811115611dab578251825591602001919060010190611d90565b5b509050611db99190611dfb565b5090565b6040518060800160405280600073ffffffffffffffffffffffffffffffffffffffff1681526020016000815260200160008152602001600081525090565b5b80821115611e14576000816000905550600101611dfc565b5090565b600081359050611e2781612988565b92915050565b60008083601f840112611e3f57600080fd5b8235905067ffffffffffffffff811115611e5857600080fd5b602083019150836001820283011115611e7057600080fd5b9250929050565b600081359050611e868161299f565b92915050565b600060208284031215611e9e57600080fd5b6000611eac84828501611e18565b91505092915050565b60008060008060008060008060e0898b031215611ed157600080fd5b600089013567ffffffffffffffff811115611eeb57600080fd5b611ef78b828c01611e2d565b98509850506020611f0a8b828c01611e77565b9650506040611f1b8b828c01611e77565b9550506060611f2c8b828c01611e77565b9450506080611f3d8b828c01611e18565b93505060a0611f4e8b828c01611e18565b92505060c0611f5f8b828c01611e18565b9150509295985092959890939650565b600060208284031215611f8157600080fd5b6000611f8f84828501611e77565b91505092915050565b611fa18161274a565b82525050565b611fb08161274a565b82525050565b611fbf816127a6565b82525050565b6000611fd0826125e4565b611fda81856125fa565b9350611fea8185602086016127b8565b611ff381612956565b840191505092915050565b600061200b601d836125fa565b91507f596f7520616c726561647920686173206265656e20726566756e6465640000006000830152602082019050919050565b600061204b6033836125fa565b91507f596f75722064756564617465206861766520746f206265206d616a6f7220746860008301527f616e207468652063757272656e742074696d65000000000000000000000000006020830152604082019050919050565b60006120b16014836125fa565b91507f507574206120636f727265637420616d6f756e740000000000000000000000006000830152602082019050919050565b60006120f16014836125fa565b91507f4661696c656420746f2073656e642045746865720000000000000000000000006000830152602082019050919050565b60006121316015836125fa565b91507f596f75206469646e7420636f6e747269627574656400000000000000000000006000830152602082019050919050565b60006121716022836125fa565b91507f546865206d696e696d756d2076616c756520686173206265656e20726561636860008301527f65640000000000000000000000000000000000000000000000000000000000006020830152604082019050919050565b60006121d7602b836125fa565b91507f4f6e6c79207468652062656e65666963696172792063616e2063616c6c20746860008301527f69732066756e6374696f6e0000000000000000000000000000000000000000006020830152604082019050919050565b600061223d6000836125ef565b9150600082019050919050565b6000612257602f836125fa565b91507f4e6f74205065726d6974656420647572696e672074686973207374617465206f60008301527f66207468652063616d706169676e2e00000000000000000000000000000000006020830152604082019050919050565b6080820160008083015490506122c58161281d565b6122d26000860182611f98565b50600183015490506122e381612837565b6122f06020860182612333565b506002830154905061230181612837565b61230e6040860182612333565b506003830154905061231f81612837565b61232c6060860182612333565b5050505050565b61233c8161278f565b82525050565b61234b8161278f565b82525050565b61235a81612799565b82525050565b600061236b82612230565b9150819050919050565b600060408201905061238a6000830185611fa7565b6123976020830184612342565b9392505050565b60006080820190506123b36000830187611fa7565b6123c06020830186612342565b6123cd6040830185612342565b6123da6060830184612342565b95945050505050565b60006101208201905081810360008301526123fe818c611fc5565b905061240d602083018b612342565b61241a604083018a612342565b6124276060830189612342565b6124346080830188611fa7565b61244160a0830187611fa7565b61244e60c0830186612342565b61245b60e0830185611fb6565b612469610100830184612342565b9a9950505050505050505050565b6000602082019050818103600083015261249081611ffe565b9050919050565b600060208201905081810360008301526124b08161203e565b9050919050565b600060208201905081810360008301526124d0816120a4565b9050919050565b600060208201905081810360008301526124f0816120e4565b9050919050565b6000602082019050818103600083015261251081612124565b9050919050565b6000602082019050818103600083015261253081612164565b9050919050565b60006020820190508181036000830152612550816121ca565b9050919050565b600060208201905081810360008301526125708161224a565b9050919050565b600060808201905061258c60008301846122b0565b92915050565b60006020820190506125a76000830184612342565b92915050565b60006060820190506125c26000830186612351565b6125cf6020830185612342565b6125dc6040830184612342565b949350505050565b600081519050919050565b600081905092915050565b600082825260208201905092915050565b60006126168261278f565b91506126218361278f565b9250827fffffffffffffffffffffffffffffffffffffffffffffffffffffffffffffffff038211156126565761265561289a565b5b828201905092915050565b600061266c8261278f565b91506126778361278f565b925082612687576126866128c9565b5b828204905092915050565b600061269d8261278f565b91506126a88361278f565b9250817fffffffffffffffffffffffffffffffffffffffffffffffffffffffffffffffff04831182151516156126e1576126e061289a565b5b828202905092915050565b60006126f78261278f565b91506127028361278f565b9250828210156127155761271461289a565b5b828203905092915050565b600073ffffffffffffffffffffffffffffffffffffffff82169050919050565b6000819050919050565b60006127558261276f565b9050919050565b600081905061276a82612974565b919050565b600073ffffffffffffffffffffffffffffffffffffffff82169050919050565b6000819050919050565b600060ff82169050919050565b60006127b18261275c565b9050919050565b60005b838110156127d65780820151818401526020810190506127bb565b838111156127e5576000848401525b50505050565b6000600282049050600182168061280357607f821691505b6020821081141561281757612816612927565b5b50919050565b600061283061282b83612967565b612720565b9050919050565b600061284a61284583612967565b612740565b9050919050565b600061285c8261278f565b91507fffffffffffffffffffffffffffffffffffffffffffffffffffffffffffffffff82141561288f5761288e61289a565b5b600182019050919050565b7f4e487b7100000000000000000000000000000000000000000000000000000000600052601160045260246000fd5b7f4e487b7100000000000000000000000000000000000000000000000000000000600052601260045260246000fd5b7f4e487b7100000000000000000000000000000000000000000000000000000000600052602160045260246000fd5b7f4e487b7100000000000000000000000000000000000000000000000000000000600052602260045260246000fd5b6000601f19601f8301169050919050565b60008160001c9050919050565b60058110612985576129846128f8565b5b50565b6129918161274a565b811461299c57600080fd5b50565b6129a88161278f565b81146129b357600080fd5b5056fea2646970667358221220d7674db8508899dfcc00b0481c0adbe7519d06269e5b7a36505c5af6def1363864736f6c63430008000033",
  "immutableReferences": {
    "786": [
      {
        "length": 32,
        "start": 595
      }
    ]
  },
  "source": "//SPDX-License-Identifier: UNLICENSED;\r\npragma solidity 0.8.0;\r\n\r\nimport \"./Crowdfy.sol\";\r\nimport \"./CrowdfyFabricI.sol\";\r\n\r\n// import \"./CrowdfyFabricI.sol\";\r\nimport \"@openzeppelin/contracts/proxy/Clones.sol\";\r\n\r\n/**@title Factory contract. Follows minimal proxy pattern to deploy each campaigns*/\r\ncontract CrowdfyFabric is CrowdfyFabricI{\r\n\r\n\r\n//** **************** STRUCTS ********************** */\r\n        struct Campaign  {\r\n        string  campaignName;\r\n        uint256 fundingGoal;//the minimum amount that the campaigns required\r\n        uint256 fundingCap; //the maximum amount that the campaigns required\r\n        uint256 deadline;\r\n        address beneficiary;//the beneficiary of the campaign\r\n        address owner;//the creator of the campaign\r\n        uint256 created; // the time when the campaign was created \r\n        address campaignAddress;\r\n    }\r\n\r\n    //** **************** STATE VARIABLES ********************** */\r\n\r\n    //Stores all campaign structure\r\n    Campaign[] public campaigns;\r\n\r\n    //points each campaigns adddress to an identifier.\r\n    mapping(uint => address) public campaignsById;\r\n\r\n    //the address of the base campaign contract implementation\r\n    address immutable campaignImplementation;\r\n\r\n    address private protocolOwner;\r\n\r\n    //** **************** EVENTS ********************** */\r\n\r\n        event CampaignCreated(\r\n            string campaignName,\r\n            address indexed creator, \r\n            address beneficiary, \r\n            uint fundingGoal, \r\n            uint createdTime, \r\n            uint deadline,\r\n            address indexed campaignAddress\r\n        );\r\n\r\n//** **************** CONSTRUCTOR ********************** */\r\n\r\n    constructor(){\r\n        protocolOwner = msg.sender;\r\n        //deploys the campaign base implementation\r\n        campaignImplementation = address(new Crowdfy());\r\n    }\r\n\r\n    ///@notice deploy a new instance of the campaign\r\n    function createCampaign(\r\n        string calldata _campaignName, \r\n        uint256 _fundingGoal, \r\n        uint256 _deadline, \r\n        uint256 _fundingCap, \r\n        address _beneficiaryAddress\r\n    ) external override returns(uint256) {\r\n\r\n        address campaignCreator = msg.sender;\r\n        \r\n        address cloneContract = Clones.clone(campaignImplementation);\r\n\r\n        Crowdfy(cloneContract).initializeCampaign(\r\n            _campaignName,\r\n             _fundingGoal, \r\n            _deadline,\r\n            _fundingCap, \r\n            _beneficiaryAddress, \r\n            campaignCreator,\r\n            protocolOwner\r\n        );\r\n\r\n       campaigns.push(Campaign(\r\n                {\r\n                campaignName: _campaignName,\r\n                fundingGoal: _fundingGoal,\r\n                fundingCap: _fundingCap,\r\n                deadline: _deadline,\r\n                beneficiary: _beneficiaryAddress,\r\n                owner: campaignCreator,\r\n                created: block.timestamp,\r\n                campaignAddress: cloneContract\r\n                }\r\n            )\r\n        );\r\n\r\n        uint256 campaignId = campaigns.length -1;\r\n\r\n        campaignsById[campaignId] = cloneContract;\r\n\r\n        emit CampaignCreated(\r\n                _campaignName, \r\n                campaignCreator, \r\n                _beneficiaryAddress, \r\n                _fundingCap, \r\n                block.timestamp, \r\n                _deadline, \r\n                cloneContract\r\n            );\r\n\r\n        return campaignId;\r\n    }\r\n\r\n    ///@notice gets the total number number of campaigns created\r\n    function getCampaignsLength() external view returns(uint256){\r\n        return campaigns.length;\r\n    }\r\n\r\n}\r\n\r\n\r\n\r\n    //   require(state() == uint8(_expectedState), \"Not Permited during this state of the campaign. Current state: \" + state() + \", state expected\" +  uint8(_expectedState));\r\n    //     _;\r\n\r\n    //                 // if (theCampaign.amountRised >= theCampaign.fundingCap &&\r\n    //         // withdrawn == theCampaign.amountRised) {\r\n    //         //      return uint8(State.Finalized);\r\n    //         // }\r\n\r\n    //         //todo USAR TRUFFLE develop para abrir las cuentas qu tengo (o usar ganache en otro caso) d\r\n    //         // todo desplegar el contrato e interactuar con el usando ganahce",
  "sourcePath": "C:/Users/PC1/Desktop/blockchain_projects/crowdfy/contracts/CrowdfyFabric.sol",
  "compiler": {
    "name": "solc",
    "version": "0.8.0+commit.c7dfd78e.Emscripten.clang"
  },
  "schemaVersion": "3.3.4",
  "updatedAt": "2021-09-03T19:25:49.204Z",
  "devdoc": {
    "kind": "dev",
    "methods": {},
    "title": "Factory contract. Follows minimal proxy pattern to deploy each campaigns",
    "version": 1
  },
  "userdoc": {
    "kind": "user",
    "methods": {
      "createCampaign(string,uint256,uint256,uint256,address)": {
        "notice": "deploy a new instance of the campaign"
      },
      "getCampaignsLength()": {
        "notice": "gets the total number number of campaigns created"
      }
    },
    "version": 1
  }
}