{
  "contractName": "CrowdfyFabric",
  "abi": [
    {
      "inputs": [],
      "stateMutability": "nonpayable",
      "type": "constructor"
    },
    {
      "anonymous": false,
      "inputs": [
        {
          "indexed": false,
          "internalType": "string",
          "name": "campaignName",
          "type": "string"
        },
        {
          "indexed": true,
          "internalType": "address",
          "name": "creator",
          "type": "address"
        },
        {
          "indexed": false,
          "internalType": "address",
          "name": "beneficiary",
          "type": "address"
        },
        {
          "indexed": false,
          "internalType": "uint256",
          "name": "fundingGoal",
          "type": "uint256"
        },
        {
          "indexed": false,
          "internalType": "uint256",
          "name": "createdTime",
          "type": "uint256"
        },
        {
          "indexed": false,
          "internalType": "uint256",
          "name": "deadline",
          "type": "uint256"
        },
        {
          "indexed": true,
          "internalType": "address",
          "name": "campaignAddress",
          "type": "address"
        }
      ],
      "name": "CampaignCreated",
      "type": "event"
    },
    {
      "inputs": [
        {
          "internalType": "uint256",
          "name": "",
          "type": "uint256"
        }
      ],
      "name": "campaigns",
      "outputs": [
        {
          "internalType": "string",
          "name": "campaignName",
          "type": "string"
        },
        {
          "internalType": "uint256",
          "name": "fundingGoal",
          "type": "uint256"
        },
        {
          "internalType": "uint256",
          "name": "fundingCap",
          "type": "uint256"
        },
        {
          "internalType": "uint256",
          "name": "deadline",
          "type": "uint256"
        },
        {
          "internalType": "address",
          "name": "beneficiary",
          "type": "address"
        },
        {
          "internalType": "address",
          "name": "owner",
          "type": "address"
        },
        {
          "internalType": "uint256",
          "name": "created",
          "type": "uint256"
        },
        {
          "internalType": "address",
          "name": "campaignAddress",
          "type": "address"
        }
      ],
      "stateMutability": "view",
      "type": "function",
      "constant": true
    },
    {
      "inputs": [
        {
          "internalType": "uint256",
          "name": "",
          "type": "uint256"
        }
      ],
      "name": "campaignsById",
      "outputs": [
        {
          "internalType": "address",
          "name": "",
          "type": "address"
        }
      ],
      "stateMutability": "view",
      "type": "function",
      "constant": true
    },
    {
      "inputs": [
        {
          "internalType": "string",
          "name": "_campaignName",
          "type": "string"
        },
        {
          "internalType": "uint256",
          "name": "_fundingGoal",
          "type": "uint256"
        },
        {
          "internalType": "uint256",
          "name": "_deadline",
          "type": "uint256"
        },
        {
          "internalType": "uint256",
          "name": "_fundingCap",
          "type": "uint256"
        },
        {
          "internalType": "address",
          "name": "_beneficiaryAddress",
          "type": "address"
        }
      ],
      "name": "createCampaign",
      "outputs": [
        {
          "internalType": "uint256",
          "name": "",
          "type": "uint256"
        }
      ],
      "stateMutability": "nonpayable",
      "type": "function"
    },
    {
      "inputs": [],
      "name": "getCampaignsLength",
      "outputs": [
        {
          "internalType": "uint256",
          "name": "",
          "type": "uint256"
        }
      ],
      "stateMutability": "view",
      "type": "function",
      "constant": true
    }
  ],
  "bytecode": "0x60a060405234801561001057600080fd5b5033600260006101000a81548173ffffffffffffffffffffffffffffffffffffffff021916908373ffffffffffffffffffffffffffffffffffffffff16021790555060405161005e906100b6565b604051809103906000f08015801561007a573d6000803e3d6000fd5b5073ffffffffffffffffffffffffffffffffffffffff1660808173ffffffffffffffffffffffffffffffffffffffff1660601b815250506100c3565b6129c880610e0f83390190565b60805160601c610d2e6100e160003960006102530152610d2e6000f3fe608060405234801561001057600080fd5b506004361061004c5760003560e01c8063141961bc146100515780631a654ac614610088578063747a512b146100b8578063fb5474ae146100e8575b600080fd5b61006b600480360381019061006691906108bf565b610106565b60405161007f989796959493929190610a9b565b60405180910390f35b6100a2600480360381019061009d919061082d565b610246565b6040516100af9190610b40565b60405180910390f35b6100d260048036038101906100cd91906108bf565b610602565b6040516100df91906109ac565b60405180910390f35b6100f0610635565b6040516100fd9190610b40565b60405180910390f35b6000818154811061011657600080fd5b906000526020600020906008020160009150905080600001805461013990610c29565b80601f016020809104026020016040519081016040528092919081815260200182805461016590610c29565b80156101b25780601f10610187576101008083540402835291602001916101b2565b820191906000526020600020905b81548152906001019060200180831161019557829003601f168201915b5050505050908060010154908060020154908060030154908060040160009054906101000a900473ffffffffffffffffffffffffffffffffffffffff16908060050160009054906101000a900473ffffffffffffffffffffffffffffffffffffffff16908060060154908060070160009054906101000a900473ffffffffffffffffffffffffffffffffffffffff16905088565b60008033905060006102777f0000000000000000000000000000000000000000000000000000000000000000610641565b90508073ffffffffffffffffffffffffffffffffffffffff16633d789e678a8a8a8a8a8a89600260009054906101000a900473ffffffffffffffffffffffffffffffffffffffff166040518963ffffffff1660e01b81526004016102e2989796959493929190610a23565b600060405180830381600087803b1580156102fc57600080fd5b505af1158015610310573d6000803e3d6000fd5b5050505060006040518061010001604052808b8b8080601f016020809104026020016040519081016040528093929190818152602001838380828437600081840152601f19601f8201169050808301925050505050505081526020018981526020018781526020018881526020018673ffffffffffffffffffffffffffffffffffffffff1681526020018473ffffffffffffffffffffffffffffffffffffffff1681526020014281526020018373ffffffffffffffffffffffffffffffffffffffff168152509080600181540180825580915050600190039060005260206000209060080201600090919091909150600082015181600001908051906020019061041b929190610716565b5060208201518160010155604082015181600201556060820151816003015560808201518160040160006101000a81548173ffffffffffffffffffffffffffffffffffffffff021916908373ffffffffffffffffffffffffffffffffffffffff16021790555060a08201518160050160006101000a81548173ffffffffffffffffffffffffffffffffffffffff021916908373ffffffffffffffffffffffffffffffffffffffff16021790555060c0820151816006015560e08201518160070160006101000a81548173ffffffffffffffffffffffffffffffffffffffff021916908373ffffffffffffffffffffffffffffffffffffffff16021790555050506000600160008054905061052f9190610b77565b9050816001600083815260200190815260200160002060006101000a81548173ffffffffffffffffffffffffffffffffffffffff021916908373ffffffffffffffffffffffffffffffffffffffff1602179055508173ffffffffffffffffffffffffffffffffffffffff168373ffffffffffffffffffffffffffffffffffffffff167fae7a6d9ea2f97678448779a611e1804dd0b3a144045e355aacc9695f7c837d198c8c898b428e6040516105ea969594939291906109c7565b60405180910390a38093505050509695505050505050565b60016020528060005260406000206000915054906101000a900473ffffffffffffffffffffffffffffffffffffffff1681565b60008080549050905090565b60006040517f3d602d80600a3d3981f3363d3d373d3d3d363d7300000000000000000000000081528260601b60148201527f5af43d82803e903d91602b57fd5bf3000000000000000000000000000000000060288201526037816000f0915050600073ffffffffffffffffffffffffffffffffffffffff168173ffffffffffffffffffffffffffffffffffffffff161415610711576040517f08c379a000000000000000000000000000000000000000000000000000000000815260040161070890610b20565b60405180910390fd5b919050565b82805461072290610c29565b90600052602060002090601f016020900481019282610744576000855561078b565b82601f1061075d57805160ff191683800117855561078b565b8280016001018555821561078b579182015b8281111561078a57825182559160200191906001019061076f565b5b509050610798919061079c565b5090565b5b808211156107b557600081600090555060010161079d565b5090565b6000813590506107c881610cca565b92915050565b60008083601f8401126107e057600080fd5b8235905067ffffffffffffffff8111156107f957600080fd5b60208301915083600182028301111561081157600080fd5b9250929050565b60008135905061082781610ce1565b92915050565b60008060008060008060a0878903121561084657600080fd5b600087013567ffffffffffffffff81111561086057600080fd5b61086c89828a016107ce565b9650965050602061087f89828a01610818565b945050604061089089828a01610818565b93505060606108a189828a01610818565b92505060806108b289828a016107b9565b9150509295509295509295565b6000602082840312156108d157600080fd5b60006108df84828501610818565b91505092915050565b6108f181610bab565b82525050565b60006109038385610b66565b9350610910838584610be7565b61091983610cb9565b840190509392505050565b600061092f82610b5b565b6109398185610b66565b9350610949818560208601610bf6565b61095281610cb9565b840191505092915050565b600061096a601683610b66565b91507f455243313136373a20637265617465206661696c6564000000000000000000006000830152602082019050919050565b6109a681610bdd565b82525050565b60006020820190506109c160008301846108e8565b92915050565b600060a08201905081810360008301526109e281888a6108f7565b90506109f160208301876108e8565b6109fe604083018661099d565b610a0b606083018561099d565b610a18608083018461099d565b979650505050505050565b600060e0820190508181036000830152610a3e818a8c6108f7565b9050610a4d602083018961099d565b610a5a604083018861099d565b610a67606083018761099d565b610a7460808301866108e8565b610a8160a08301856108e8565b610a8e60c08301846108e8565b9998505050505050505050565b6000610100820190508181036000830152610ab6818b610924565b9050610ac5602083018a61099d565b610ad2604083018961099d565b610adf606083018861099d565b610aec60808301876108e8565b610af960a08301866108e8565b610b0660c083018561099d565b610b1360e08301846108e8565b9998505050505050505050565b60006020820190508181036000830152610b398161095d565b9050919050565b6000602082019050610b55600083018461099d565b92915050565b600081519050919050565b600082825260208201905092915050565b6000610b8282610bdd565b9150610b8d83610bdd565b925082821015610ba057610b9f610c5b565b5b828203905092915050565b6000610bb682610bbd565b9050919050565b600073ffffffffffffffffffffffffffffffffffffffff82169050919050565b6000819050919050565b82818337600083830152505050565b60005b83811015610c14578082015181840152602081019050610bf9565b83811115610c23576000848401525b50505050565b60006002820490506001821680610c4157607f821691505b60208210811415610c5557610c54610c8a565b5b50919050565b7f4e487b7100000000000000000000000000000000000000000000000000000000600052601160045260246000fd5b7f4e487b7100000000000000000000000000000000000000000000000000000000600052602260045260246000fd5b6000601f19601f8301169050919050565b610cd381610bab565b8114610cde57600080fd5b50565b610cea81610bdd565b8114610cf557600080fd5b5056fea26469706673582212202270cee5c90dab296322e9ba9ca48538b4779a988a2c66bf0d9914b16569705964736f6c63430008000033608060405260008060006101000a81548160ff021916908315150217905550600060045534801561002f57600080fd5b506129898061003f6000396000f3fe6080604052600436106100865760003560e01c806345c53b511161005957806345c53b51146101295780639e9fa53514610169578063c383759e1461019c578063c80ec522146101a6578063d7bb99ba146101d157610086565b80631cee07001461008b578063269fa128146100cb5780633ccfd60b146100f65780633d789e6714610100575b600080fd5b34801561009757600080fd5b506100b260048036038101906100ad9190611f0c565b6101db565b6040516100c2949392919061233b565b60405180910390f35b3480156100d757600080fd5b506100e061023b565b6040516100ed919061252f565b60405180910390f35b6100fe610241565b005b34801561010c57600080fd5b5061012760048036038101906101229190611e52565b610757565b005b34801561013557600080fd5b50610150600480360381019061014b9190611e29565b610a63565b604051610160949392919061233b565b60405180910390f35b34801561017557600080fd5b5061017e610ab3565b60405161019399989796959493929190612380565b60405180910390f35b6101a4610bc4565b005b3480156101b257600080fd5b506101bb6110f7565b6040516101c8919061252f565b60405180910390f35b6101d96110fd565b005b600181815481106101eb57600080fd5b90600052602060002090600402016000915090508060000160009054906101000a900473ffffffffffffffffffffffffffffffffffffffff16908060010154908060020154908060030154905084565b60035481565b604051806040016040528060026004811115610286577f4e487b7100000000000000000000000000000000000000000000000000000000600052602160045260246000fd5b60048111156102be577f4e487b7100000000000000000000000000000000000000000000000000000000600052602160045260246000fd5b81526020016004808111156102fc577f4e487b7100000000000000000000000000000000000000000000000000000000600052602160045260246000fd5b6004811115610334577f4e487b7100000000000000000000000000000000000000000000000000000000600052602160045260246000fd5b81525080600060028110610371577f4e487b7100000000000000000000000000000000000000000000000000000000600052603260045260246000fd5b602002015160048111156103ae577f4e487b7100000000000000000000000000000000000000000000000000000000600052602160045260246000fd5b60ff166103b9611a51565b60ff16148061044a5750806001600281106103fd577f4e487b7100000000000000000000000000000000000000000000000000000000600052603260045260246000fd5b6020020151600481111561043a577f4e487b7100000000000000000000000000000000000000000000000000000000600052602160045260246000fd5b60ff16610445611a51565b60ff16145b610489576040517f08c379a0000000000000000000000000000000000000000000000000000000008152600401610480906124f4565b60405180910390fd5b3373ffffffffffffffffffffffffffffffffffffffff16600560040160009054906101000a900473ffffffffffffffffffffffffffffffffffffffff1673ffffffffffffffffffffffffffffffffffffffff161461051c576040517f08c379a0000000000000000000000000000000000000000000000000000000008152600401610513906124d4565b60405180910390fd5b600060045460035410610541576004546003546105399190612689565b905080610555565b6003546004546105519190612689565b9050805b506003546004600082825461056a91906125a8565b9250508190555060006003819055506000600560040160009054906101000a900473ffffffffffffffffffffffffffffffffffffffff1673ffffffffffffffffffffffffffffffffffffffff16826040516105c4906122fd565b60006040518083038185875af1925050503d8060008114610601576040519150601f19603f3d011682016040523d82523d6000602084013e610606565b606091505b505090508061064a576040517f08c379a000000000000000000000000000000000000000000000000000000000815260040161064190612474565b60405180910390fd5b7f69c28ed920602b9cdf6ed91326f80f2938e8a2abea60f62437bd2497c163bebb600560040160009054906101000a900473ffffffffffffffffffffffffffffffffffffffff16836040516106a0929190612312565b60405180910390a160056002015460045410610752576003600560070160006101000a81548160ff02191690836004811115610705577f4e487b7100000000000000000000000000000000000000000000000000000000600052602160045260246000fd5b02179055507fd19a4f1dc67e9517b0aae3c5a223a30b0e7acadef01a15441737504115d0768f610733611a51565b426005600801546040516107499392919061254a565b60405180910390a15b505050565b428511610799576040517f08c379a000000000000000000000000000000000000000000000000000000000815260040161079090612434565b60405180910390fd5b60008054906101000a900460ff16156107db577f4e487b7100000000000000000000000000000000000000000000000000000000600052600160045260246000fd5b60405180610120016040528089898080601f016020809104026020016040519081016040528093929190818152602001838380828437600081840152601f19601f8201169050808301925050505050505081526020018781526020018581526020018681526020018473ffffffffffffffffffffffffffffffffffffffff1681526020018373ffffffffffffffffffffffffffffffffffffffff168152602001428152602001600060048111156108bb577f4e487b7100000000000000000000000000000000000000000000000000000000600052602160045260246000fd5b81526020016000815250600560008201518160000190805190602001906108e3929190611cd4565b5060208201518160010155604082015181600201556060820151816003015560808201518160040160006101000a81548173ffffffffffffffffffffffffffffffffffffffff021916908373ffffffffffffffffffffffffffffffffffffffff16021790555060a08201518160050160006101000a81548173ffffffffffffffffffffffffffffffffffffffff021916908373ffffffffffffffffffffffffffffffffffffffff16021790555060c0820151816006015560e08201518160070160006101000a81548160ff021916908360048111156109eb577f4e487b7100000000000000000000000000000000000000000000000000000000600052602160045260246000fd5b0217905550610100820151816008015590505080600060016101000a81548173ffffffffffffffffffffffffffffffffffffffff021916908373ffffffffffffffffffffffffffffffffffffffff16021790555060016000806101000a81548160ff0219169083151502179055505050505050505050565b60026020528060005260406000206000915090508060000160009054906101000a900473ffffffffffffffffffffffffffffffffffffffff16908060010154908060020154908060030154905084565b6005806000018054610ac490612788565b80601f0160208091040260200160405190810160405280929190818152602001828054610af090612788565b8015610b3d5780601f10610b1257610100808354040283529160200191610b3d565b820191906000526020600020905b815481529060010190602001808311610b2057829003601f168201915b5050505050908060010154908060020154908060030154908060040160009054906101000a900473ffffffffffffffffffffffffffffffffffffffff16908060050160009054906101000a900473ffffffffffffffffffffffffffffffffffffffff16908060060154908060070160009054906101000a900460ff16908060080154905089565b604051806040016040528060016004811115610c09577f4e487b7100000000000000000000000000000000000000000000000000000000600052602160045260246000fd5b6004811115610c41577f4e487b7100000000000000000000000000000000000000000000000000000000600052602160045260246000fd5b815260200160016004811115610c80577f4e487b7100000000000000000000000000000000000000000000000000000000600052602160045260246000fd5b6004811115610cb8577f4e487b7100000000000000000000000000000000000000000000000000000000600052602160045260246000fd5b81525080600060028110610cf5577f4e487b7100000000000000000000000000000000000000000000000000000000600052603260045260246000fd5b60200201516004811115610d32577f4e487b7100000000000000000000000000000000000000000000000000000000600052602160045260246000fd5b60ff16610d3d611a51565b60ff161480610dce575080600160028110610d81577f4e487b7100000000000000000000000000000000000000000000000000000000600052603260045260246000fd5b60200201516004811115610dbe577f4e487b7100000000000000000000000000000000000000000000000000000000600052602160045260246000fd5b60ff16610dc9611a51565b60ff16145b610e0d576040517f08c379a0000000000000000000000000000000000000000000000000000000008152600401610e04906124f4565b60405180910390fd5b600f60003373ffffffffffffffffffffffffffffffffffffffff1673ffffffffffffffffffffffffffffffffffffffff16815260200190815260200160002060009054906101000a900460ff16610e99576040517f08c379a0000000000000000000000000000000000000000000000000000000008152600401610e9090612494565b60405180910390fd5b600e60003373ffffffffffffffffffffffffffffffffffffffff1673ffffffffffffffffffffffffffffffffffffffff16815260200190815260200160002060009054906101000a900460ff1615610f26576040517f08c379a0000000000000000000000000000000000000000000000000000000008152600401610f1d90612414565b60405180910390fd5b6000600260003373ffffffffffffffffffffffffffffffffffffffff1673ffffffffffffffffffffffffffffffffffffffff1681526020019081526020016000206001015490506000600260003373ffffffffffffffffffffffffffffffffffffffff1673ffffffffffffffffffffffffffffffffffffffff1681526020019081526020016000206001018190555060003373ffffffffffffffffffffffffffffffffffffffff1682604051610fdb906122fd565b60006040518083038185875af1925050503d8060008114611018576040519150601f19603f3d011682016040523d82523d6000602084013e61101d565b606091505b5050905080611061576040517f08c379a000000000000000000000000000000000000000000000000000000000815260040161105890612474565b60405180910390fd5b6001600e60003373ffffffffffffffffffffffffffffffffffffffff1673ffffffffffffffffffffffffffffffffffffffff16815260200190815260200160002060006101000a81548160ff0219169083151502179055507f0d8155b71a49cdcbf2ff949cd1ffc6b12f5ef6680b329f75c3b1e9c00b1deadc33836040516110ea929190612312565b60405180910390a1505050565b60045481565b604051806040016040528060006004811115611142577f4e487b7100000000000000000000000000000000000000000000000000000000600052602160045260246000fd5b600481111561117a577f4e487b7100000000000000000000000000000000000000000000000000000000600052602160045260246000fd5b81526020016004808111156111b8577f4e487b7100000000000000000000000000000000000000000000000000000000600052602160045260246000fd5b60048111156111f0577f4e487b7100000000000000000000000000000000000000000000000000000000600052602160045260246000fd5b8152508060006002811061122d577f4e487b7100000000000000000000000000000000000000000000000000000000600052603260045260246000fd5b6020020151600481111561126a577f4e487b7100000000000000000000000000000000000000000000000000000000600052602160045260246000fd5b60ff16611275611a51565b60ff1614806113065750806001600281106112b9577f4e487b7100000000000000000000000000000000000000000000000000000000600052603260045260246000fd5b602002015160048111156112f6577f4e487b7100000000000000000000000000000000000000000000000000000000600052602160045260246000fd5b60ff16611301611a51565b60ff16145b611345576040517f08c379a000000000000000000000000000000000000000000000000000000000815260040161133c906124f4565b60405180910390fd5b60003411611388576040517f08c379a000000000000000000000000000000000000000000000000000000000815260040161137f90612454565b60405180910390fd5b600061139334611cb2565b9050600f60003373ffffffffffffffffffffffffffffffffffffffff1673ffffffffffffffffffffffffffffffffffffffff16815260200190815260200160002060009054906101000a900460ff1615611523576000600260003373ffffffffffffffffffffffffffffffffffffffff1673ffffffffffffffffffffffffffffffffffffffff168152602001908152602001600020905081346114369190612689565b81600101600082825461144991906125a8565b92505081905550806003016000815480929190611465906127ee565b919050555060018190806001815401808255809150506001900390600052602060002090600402016000909190919091506000820160009054906101000a900473ffffffffffffffffffffffffffffffffffffffff168160000160006101000a81548173ffffffffffffffffffffffffffffffffffffffff021916908373ffffffffffffffffffffffffffffffffffffffff160217905550600182015481600101556002820154816002015560038201548160030155505050611705565b61152b611d5a565b60405180608001604052803373ffffffffffffffffffffffffffffffffffffffff168152602001833461155e9190612689565b81526020014281526020016001815250905080600260003373ffffffffffffffffffffffffffffffffffffffff1673ffffffffffffffffffffffffffffffffffffffff16815260200190815260200160002060008201518160000160006101000a81548173ffffffffffffffffffffffffffffffffffffffff021916908373ffffffffffffffffffffffffffffffffffffffff160217905550602082015181600101556040820151816002015560608201518160030155905050600181908060018154018082558091505060019003906000526020600020906004020160009091909190915060008201518160000160006101000a81548173ffffffffffffffffffffffffffffffffffffffff021916908373ffffffffffffffffffffffffffffffffffffffff16021790555060208201518160010155604082015181600201556060820151816003015550506001600f60003373ffffffffffffffffffffffffffffffffffffffff1673ffffffffffffffffffffffffffffffffffffffff16815260200190815260200160002060006101000a81548160ff021916908315150217905550505b80346117119190612689565b6005600801600082825461172591906125a8565b9250508190555080346117389190612689565b6003600082825461174991906125a8565b9250508190555060008060019054906101000a900473ffffffffffffffffffffffffffffffffffffffff1673ffffffffffffffffffffffffffffffffffffffff1682604051611797906122fd565b60006040518083038185875af1925050503d80600081146117d4576040519150601f19603f3d011682016040523d82523d6000602084013e6117d9565b606091505b505090508061181d576040517f08c379a000000000000000000000000000000000000000000000000000000000815260040161181490612474565b60405180910390fd5b7fa16998de83819f5ca2c042721f072a56d937c091116a4f7ae5d13bd9cd134df18260405161184c919061252f565b60405180910390a17fa58938784a8b5e957cd3d5985f480e22369c83454366cf45c27a984255189cf0600260003373ffffffffffffffffffffffffffffffffffffffff1673ffffffffffffffffffffffffffffffffffffffff1681526020019081526020016000206040516118c19190612514565b60405180910390a1600560010154600560080154101580156118ec5750600560020154600560080154105b801561190b5750426224ea0060056003015461190891906125a8565b10155b1561199e576004600560070160006101000a81548160ff0219169083600481111561195f577f4e487b7100000000000000000000000000000000000000000000000000000000600052602160045260246000fd5b02179055507fad82a6bfb97f4201aa3ae3006c4fb2ac920cd47a8c5765a5fd9dc34c5b4fb07e604051611991906124b4565b60405180910390a1611a4c565b600560020154600560080154101580156119be5750600560020154600454105b806119f15750426224ea006005600301546119d991906125a8565b1080156119f0575060056001015460056008015410155b5b15611a4b576002600560070160006101000a81548160ff02191690836004811115611a45577f4e487b7100000000000000000000000000000000000000000000000000000000600052602160045260246000fd5b02179055505b5b505050565b600042600560030154118015611a705750600560010154600560080154105b8015611a7e57506000600454145b15611ac45760006004811115611abd577f4e487b7100000000000000000000000000000000000000000000000000000000600052602160045260246000fd5b9050611caf565b60056001015460056008015410158015611ae75750600560020154600560080154105b8015611b065750426224ea00600560030154611b0391906125a8565b10155b15611b4b57600480811115611b44577f4e487b7100000000000000000000000000000000000000000000000000000000600052602160045260246000fd5b9050611caf565b60056002015460056008015410158015611b6b5750600560020154600454105b80611b9e5750426224ea00600560030154611b8691906125a8565b108015611b9d575060056001015460056008015410155b5b15611be45760026004811115611bdd577f4e487b7100000000000000000000000000000000000000000000000000000000600052602160045260246000fd5b9050611caf565b60056002015460056008015410158015611c05575060056002015460045410155b15611c4b5760036004811115611c44577f4e487b7100000000000000000000000000000000000000000000000000000000600052602160045260246000fd5b9050611caf565b42600560030154108015611c685750600560010154600560080154105b15611cae5760016004811115611ca7577f4e487b7100000000000000000000000000000000000000000000000000000000600052602160045260246000fd5b9050611caf565b5b90565b60006064600183611cc3919061262f565b611ccd91906125fe565b9050919050565b828054611ce090612788565b90600052602060002090601f016020900481019282611d025760008555611d49565b82601f10611d1b57805160ff1916838001178555611d49565b82800160010185558215611d49579182015b82811115611d48578251825591602001919060010190611d2d565b5b509050611d569190611d98565b5090565b6040518060800160405280600073ffffffffffffffffffffffffffffffffffffffff1681526020016000815260200160008152602001600081525090565b5b80821115611db1576000816000905550600101611d99565b5090565b600081359050611dc481612925565b92915050565b60008083601f840112611ddc57600080fd5b8235905067ffffffffffffffff811115611df557600080fd5b602083019150836001820283011115611e0d57600080fd5b9250929050565b600081359050611e238161293c565b92915050565b600060208284031215611e3b57600080fd5b6000611e4984828501611db5565b91505092915050565b60008060008060008060008060e0898b031215611e6e57600080fd5b600089013567ffffffffffffffff811115611e8857600080fd5b611e948b828c01611dca565b98509850506020611ea78b828c01611e14565b9650506040611eb88b828c01611e14565b9550506060611ec98b828c01611e14565b9450506080611eda8b828c01611db5565b93505060a0611eeb8b828c01611db5565b92505060c0611efc8b828c01611db5565b9150509295985092959890939650565b600060208284031215611f1e57600080fd5b6000611f2c84828501611e14565b91505092915050565b611f3e816126e7565b82525050565b611f4d816126e7565b82525050565b611f5c81612743565b82525050565b6000611f6d82612581565b611f778185612597565b9350611f87818560208601612755565b611f90816128f3565b840191505092915050565b6000611fa8601d83612597565b91507f596f7520616c726561647920686173206265656e20726566756e6465640000006000830152602082019050919050565b6000611fe8603383612597565b91507f596f75722064756564617465206861766520746f206265206d616a6f7220746860008301527f616e207468652063757272656e742074696d65000000000000000000000000006020830152604082019050919050565b600061204e601483612597565b91507f507574206120636f727265637420616d6f756e740000000000000000000000006000830152602082019050919050565b600061208e601483612597565b91507f4661696c656420746f2073656e642045746865720000000000000000000000006000830152602082019050919050565b60006120ce601583612597565b91507f596f75206469646e7420636f6e747269627574656400000000000000000000006000830152602082019050919050565b600061210e602283612597565b91507f546865206d696e696d756d2076616c756520686173206265656e20726561636860008301527f65640000000000000000000000000000000000000000000000000000000000006020830152604082019050919050565b6000612174602b83612597565b91507f4f6e6c79207468652062656e65666963696172792063616e2063616c6c20746860008301527f69732066756e6374696f6e0000000000000000000000000000000000000000006020830152604082019050919050565b60006121da60008361258c565b9150600082019050919050565b60006121f4602f83612597565b91507f4e6f74205065726d6974656420647572696e672074686973207374617465206f60008301527f66207468652063616d706169676e2e00000000000000000000000000000000006020830152604082019050919050565b608082016000808301549050612262816127ba565b61226f6000860182611f35565b5060018301549050612280816127d4565b61228d60208601826122d0565b506002830154905061229e816127d4565b6122ab60408601826122d0565b50600383015490506122bc816127d4565b6122c960608601826122d0565b5050505050565b6122d98161272c565b82525050565b6122e88161272c565b82525050565b6122f781612736565b82525050565b6000612308826121cd565b9150819050919050565b60006040820190506123276000830185611f44565b61233460208301846122df565b9392505050565b60006080820190506123506000830187611f44565b61235d60208301866122df565b61236a60408301856122df565b61237760608301846122df565b95945050505050565b600061012082019050818103600083015261239b818c611f62565b90506123aa602083018b6122df565b6123b7604083018a6122df565b6123c460608301896122df565b6123d16080830188611f44565b6123de60a0830187611f44565b6123eb60c08301866122df565b6123f860e0830185611f53565b6124066101008301846122df565b9a9950505050505050505050565b6000602082019050818103600083015261242d81611f9b565b9050919050565b6000602082019050818103600083015261244d81611fdb565b9050919050565b6000602082019050818103600083015261246d81612041565b9050919050565b6000602082019050818103600083015261248d81612081565b9050919050565b600060208201905081810360008301526124ad816120c1565b9050919050565b600060208201905081810360008301526124cd81612101565b9050919050565b600060208201905081810360008301526124ed81612167565b9050919050565b6000602082019050818103600083015261250d816121e7565b9050919050565b6000608082019050612529600083018461224d565b92915050565b600060208201905061254460008301846122df565b92915050565b600060608201905061255f60008301866122ee565b61256c60208301856122df565b61257960408301846122df565b949350505050565b600081519050919050565b600081905092915050565b600082825260208201905092915050565b60006125b38261272c565b91506125be8361272c565b9250827fffffffffffffffffffffffffffffffffffffffffffffffffffffffffffffffff038211156125f3576125f2612837565b5b828201905092915050565b60006126098261272c565b91506126148361272c565b92508261262457612623612866565b5b828204905092915050565b600061263a8261272c565b91506126458361272c565b9250817fffffffffffffffffffffffffffffffffffffffffffffffffffffffffffffffff048311821515161561267e5761267d612837565b5b828202905092915050565b60006126948261272c565b915061269f8361272c565b9250828210156126b2576126b1612837565b5b828203905092915050565b600073ffffffffffffffffffffffffffffffffffffffff82169050919050565b6000819050919050565b60006126f28261270c565b9050919050565b600081905061270782612911565b919050565b600073ffffffffffffffffffffffffffffffffffffffff82169050919050565b6000819050919050565b600060ff82169050919050565b600061274e826126f9565b9050919050565b60005b83811015612773578082015181840152602081019050612758565b83811115612782576000848401525b50505050565b600060028204905060018216806127a057607f821691505b602082108114156127b4576127b36128c4565b5b50919050565b60006127cd6127c883612904565b6126bd565b9050919050565b60006127e76127e283612904565b6126dd565b9050919050565b60006127f98261272c565b91507fffffffffffffffffffffffffffffffffffffffffffffffffffffffffffffffff82141561282c5761282b612837565b5b600182019050919050565b7f4e487b7100000000000000000000000000000000000000000000000000000000600052601160045260246000fd5b7f4e487b7100000000000000000000000000000000000000000000000000000000600052601260045260246000fd5b7f4e487b7100000000000000000000000000000000000000000000000000000000600052602160045260246000fd5b7f4e487b7100000000000000000000000000000000000000000000000000000000600052602260045260246000fd5b6000601f19601f8301169050919050565b60008160001c9050919050565b6005811061292257612921612895565b5b50565b61292e816126e7565b811461293957600080fd5b50565b6129458161272c565b811461295057600080fd5b5056fea26469706673582212209c1579669751dcb0e672d17900881cccd98a2d2ebbba707067e8994626e02d2c64736f6c63430008000033",
  "immutableReferences": {
    "753": [
      {
        "length": 32,
        "start": 595
      }
    ]
  },
  "source": "//SPDX-License-Identifier: UNLICENSED;\r\npragma solidity 0.8.0;\r\n\r\nimport \"./Crowdfy.sol\";\r\nimport \"./CrowdfyFabricI.sol\";\r\n\r\n// import \"./CrowdfyFabricI.sol\";\r\nimport \"@openzeppelin/contracts/proxy/Clones.sol\";\r\n\r\n/**@title Factory contract. Follows minimal proxy pattern to deploy each campaigns*/\r\ncontract CrowdfyFabric is CrowdfyFabricI{\r\n\r\n\r\n//** **************** STRUCTS ********************** */\r\n        struct Campaign  {\r\n        string  campaignName;\r\n        uint256 fundingGoal;//the minimum amount that the campaigns required\r\n        uint256 fundingCap; //the maximum amount that the campaigns required\r\n        uint256 deadline;\r\n        address beneficiary;//the beneficiary of the campaign\r\n        address owner;//the creator of the campaign\r\n        uint256 created; // the time when the campaign was created \r\n        address campaignAddress;\r\n    }\r\n\r\n    //** **************** STATE VARIABLES ********************** */\r\n\r\n    //Stores all campaign structure\r\n    Campaign[] public campaigns;\r\n\r\n    //points each campaigns adddress to an identifier.\r\n    mapping(uint => address) public campaignsById;\r\n\r\n    //the address of the base campaign contract implementation\r\n    address immutable campaignImplementation;\r\n\r\n    address private protocolOwner;\r\n\r\n    //** **************** EVENTS ********************** */\r\n\r\n        event CampaignCreated(\r\n            string campaignName,\r\n            address indexed creator, \r\n            address beneficiary, \r\n            uint fundingGoal, \r\n            uint createdTime, \r\n            uint deadline,\r\n            address indexed campaignAddress\r\n        );\r\n\r\n//** **************** CONSTRUCTOR ********************** */\r\n\r\n    constructor(){\r\n        protocolOwner = msg.sender;\r\n        //deploys the campaign base implementation\r\n        campaignImplementation = address(new Crowdfy());\r\n    }\r\n\r\n    ///@notice deploy a new instance of the campaign\r\n    function createCampaign(\r\n        string calldata _campaignName, \r\n        uint256 _fundingGoal, \r\n        uint256 _deadline, \r\n        uint256 _fundingCap, \r\n        address _beneficiaryAddress\r\n    ) external override returns(uint256) {\r\n\r\n        // WARNING posible burnt of ether when we set _beneficiaryAddress to 0\r\n\r\n        address campaignCreator = msg.sender;\r\n        \r\n        address cloneContract = Clones.clone(campaignImplementation);\r\n\r\n        Crowdfy(cloneContract).initializeCampaign(\r\n            _campaignName,\r\n             _fundingGoal, \r\n            _deadline,\r\n            _fundingCap, \r\n            _beneficiaryAddress, \r\n            campaignCreator,\r\n            protocolOwner\r\n        );\r\n\r\n       campaigns.push(Campaign(\r\n                {\r\n                campaignName: _campaignName,\r\n                fundingGoal: _fundingGoal,\r\n                fundingCap: _fundingCap,\r\n                deadline: _deadline,\r\n                beneficiary: _beneficiaryAddress,\r\n                owner: campaignCreator,\r\n                created: block.timestamp,\r\n                campaignAddress: cloneContract\r\n                }\r\n            )\r\n        );\r\n\r\n        uint256 campaignId = campaigns.length -1;\r\n\r\n        campaignsById[campaignId] = cloneContract;\r\n\r\n        emit CampaignCreated(\r\n                _campaignName, \r\n                campaignCreator, \r\n                _beneficiaryAddress, \r\n                _fundingCap, \r\n                block.timestamp, \r\n                _deadline, \r\n                cloneContract\r\n            );\r\n\r\n        return campaignId;\r\n    }\r\n\r\n    ///@notice gets the total number number of campaigns created\r\n    function getCampaignsLength() external view returns(uint256){\r\n        return campaigns.length;\r\n    }\r\n\r\n}\r\n",
  "sourcePath": "C:/Users/PC1/Desktop/blockchain_projects/crowdfy/contracts/CrowdfyFabric.sol",
  "compiler": {
    "name": "solc",
    "version": "0.8.0+commit.c7dfd78e.Emscripten.clang"
  },
  "schemaVersion": "3.3.4",
  "updatedAt": "2021-09-09T13:37:11.910Z",
  "networkType": "ethereum",
  "devdoc": {
    "kind": "dev",
    "methods": {},
    "title": "Factory contract. Follows minimal proxy pattern to deploy each campaigns",
    "version": 1
  },
  "userdoc": {
    "kind": "user",
    "methods": {
      "createCampaign(string,uint256,uint256,uint256,address)": {
        "notice": "deploy a new instance of the campaign"
      },
      "getCampaignsLength()": {
        "notice": "gets the total number number of campaigns created"
      }
    },
    "version": 1
  }
}